{
  "contractName": "PayItForwardToken",
  "abi": [
    {
      "inputs": [],
      "stateMutability": "nonpayable",
      "type": "constructor"
    },
    {
      "anonymous": false,
      "inputs": [
        {
          "indexed": true,
          "internalType": "uint256",
          "name": "actId",
          "type": "uint256"
        },
        {
          "indexed": true,
          "internalType": "address",
          "name": "initiator",
          "type": "address"
        },
        {
          "indexed": true,
          "internalType": "address",
          "name": "recipient",
          "type": "address"
        },
        {
          "indexed": false,
          "internalType": "string",
          "name": "description",
          "type": "string"
        },
        {
          "indexed": false,
          "internalType": "uint256",
          "name": "reward",
          "type": "uint256"
        }
      ],
      "name": "ActOfKindnessRecorded",
      "type": "event"
    },
    {
      "anonymous": false,
      "inputs": [
        {
          "indexed": true,
          "internalType": "uint256",
          "name": "actId",
          "type": "uint256"
        },
        {
          "indexed": false,
          "internalType": "address",
          "name": "verifier",
          "type": "address"
        }
      ],
      "name": "ActVerified",
      "type": "event"
    },
    {
      "anonymous": false,
      "inputs": [
        {
          "indexed": true,
          "internalType": "address",
          "name": "owner",
          "type": "address"
        },
        {
          "indexed": true,
          "internalType": "address",
          "name": "spender",
          "type": "address"
        },
        {
          "indexed": false,
          "internalType": "uint256",
          "name": "value",
          "type": "uint256"
        }
      ],
      "name": "Approval",
      "type": "event"
    },
    {
      "anonymous": false,
      "inputs": [
        {
          "indexed": true,
          "internalType": "address",
          "name": "previousOwner",
          "type": "address"
        },
        {
          "indexed": true,
          "internalType": "address",
          "name": "newOwner",
          "type": "address"
        }
      ],
      "name": "OwnershipTransferred",
      "type": "event"
    },
    {
      "anonymous": false,
      "inputs": [
        {
          "indexed": true,
          "internalType": "address",
          "name": "user",
          "type": "address"
        },
        {
          "indexed": false,
          "internalType": "uint256",
          "name": "newScore",
          "type": "uint256"
        }
      ],
      "name": "ReputationUpdated",
      "type": "event"
    },
    {
      "anonymous": false,
      "inputs": [
        {
          "indexed": true,
          "internalType": "address",
          "name": "user",
          "type": "address"
        },
        {
          "indexed": false,
          "internalType": "uint256",
          "name": "amount",
          "type": "uint256"
        },
        {
          "indexed": false,
          "internalType": "uint256",
          "name": "duration",
          "type": "uint256"
        }
      ],
      "name": "TokensStaked",
      "type": "event"
    },
    {
      "anonymous": false,
      "inputs": [
        {
          "indexed": true,
          "internalType": "address",
          "name": "from",
          "type": "address"
        },
        {
          "indexed": true,
          "internalType": "address",
          "name": "to",
          "type": "address"
        },
        {
          "indexed": false,
          "internalType": "uint256",
          "name": "amount",
          "type": "uint256"
        }
      ],
      "name": "TokensTransferred",
      "type": "event"
    },
    {
      "anonymous": false,
      "inputs": [
        {
          "indexed": true,
          "internalType": "address",
          "name": "from",
          "type": "address"
        },
        {
          "indexed": true,
          "internalType": "address",
          "name": "to",
          "type": "address"
        },
        {
          "indexed": false,
          "internalType": "uint256",
          "name": "value",
          "type": "uint256"
        }
      ],
      "name": "Transfer",
      "type": "event"
    },
    {
      "anonymous": false,
      "inputs": [
        {
          "indexed": true,
          "internalType": "address",
          "name": "user",
          "type": "address"
        },
        {
          "indexed": false,
          "internalType": "uint256",
          "name": "amount",
          "type": "uint256"
        }
      ],
      "name": "WalletInitialized",
      "type": "event"
    },
    {
      "inputs": [],
      "name": "BASE_REWARD",
      "outputs": [
        {
          "internalType": "uint256",
          "name": "",
          "type": "uint256"
        }
      ],
      "stateMutability": "view",
      "type": "function"
    },
    {
      "inputs": [],
      "name": "REPUTATION_INCREMENT",
      "outputs": [
        {
          "internalType": "uint256",
          "name": "",
          "type": "uint256"
        }
      ],
      "stateMutability": "view",
      "type": "function"
    },
    {
      "inputs": [],
      "name": "VERIFICATION_THRESHOLD",
      "outputs": [
        {
          "internalType": "uint256",
          "name": "",
          "type": "uint256"
        }
      ],
      "stateMutability": "view",
      "type": "function"
    },
    {
      "inputs": [],
      "name": "actCounter",
      "outputs": [
        {
          "internalType": "uint256",
          "name": "",
          "type": "uint256"
        }
      ],
      "stateMutability": "view",
      "type": "function"
    },
    {
      "inputs": [
        {
          "internalType": "uint256",
          "name": "",
          "type": "uint256"
        }
      ],
      "name": "actsOfKindness",
      "outputs": [
        {
          "internalType": "address",
          "name": "initiator",
          "type": "address"
        },
        {
          "internalType": "address",
          "name": "recipient",
          "type": "address"
        },
        {
          "internalType": "string",
          "name": "description",
          "type": "string"
        },
        {
          "internalType": "uint256",
          "name": "timestamp",
          "type": "uint256"
        },
        {
          "internalType": "bool",
          "name": "verified",
          "type": "bool"
        },
        {
          "internalType": "uint256",
          "name": "reward",
          "type": "uint256"
        }
      ],
      "stateMutability": "view",
      "type": "function"
    },
    {
      "inputs": [
        {
          "internalType": "address",
          "name": "owner",
          "type": "address"
        },
        {
          "internalType": "address",
          "name": "spender",
          "type": "address"
        }
      ],
      "name": "allowance",
      "outputs": [
        {
          "internalType": "uint256",
          "name": "",
          "type": "uint256"
        }
      ],
      "stateMutability": "view",
      "type": "function"
    },
    {
      "inputs": [
        {
          "internalType": "address",
          "name": "spender",
          "type": "address"
        },
        {
          "internalType": "uint256",
          "name": "amount",
          "type": "uint256"
        }
      ],
      "name": "approve",
      "outputs": [
        {
          "internalType": "bool",
          "name": "",
          "type": "bool"
        }
      ],
      "stateMutability": "nonpayable",
      "type": "function"
    },
    {
      "inputs": [
        {
          "internalType": "address",
          "name": "",
          "type": "address"
        }
      ],
      "name": "balances",
      "outputs": [
        {
          "internalType": "uint256",
          "name": "",
          "type": "uint256"
        }
      ],
      "stateMutability": "view",
      "type": "function"
    },
    {
      "inputs": [],
      "name": "decimals",
      "outputs": [
        {
          "internalType": "uint8",
          "name": "",
          "type": "uint8"
        }
      ],
      "stateMutability": "view",
      "type": "function"
    },
    {
      "inputs": [
        {
          "internalType": "address",
          "name": "spender",
          "type": "address"
        },
        {
          "internalType": "uint256",
          "name": "subtractedValue",
          "type": "uint256"
        }
      ],
      "name": "decreaseAllowance",
      "outputs": [
        {
          "internalType": "bool",
          "name": "",
          "type": "bool"
        }
      ],
      "stateMutability": "nonpayable",
      "type": "function"
    },
    {
      "inputs": [
        {
          "internalType": "address",
          "name": "spender",
          "type": "address"
        },
        {
          "internalType": "uint256",
          "name": "addedValue",
          "type": "uint256"
        }
      ],
      "name": "increaseAllowance",
      "outputs": [
        {
          "internalType": "bool",
          "name": "",
          "type": "bool"
        }
      ],
      "stateMutability": "nonpayable",
      "type": "function"
    },
    {
      "inputs": [
        {
          "internalType": "address",
          "name": "",
          "type": "address"
        }
      ],
      "name": "initializedWallets",
      "outputs": [
        {
          "internalType": "bool",
          "name": "",
          "type": "bool"
        }
      ],
      "stateMutability": "view",
      "type": "function"
    },
    {
      "inputs": [],
      "name": "name",
      "outputs": [
        {
          "internalType": "string",
          "name": "",
          "type": "string"
        }
      ],
      "stateMutability": "view",
      "type": "function"
    },
    {
      "inputs": [],
      "name": "owner",
      "outputs": [
        {
          "internalType": "address",
          "name": "",
          "type": "address"
        }
      ],
      "stateMutability": "view",
      "type": "function"
    },
    {
      "inputs": [],
      "name": "renounceOwnership",
      "outputs": [],
      "stateMutability": "nonpayable",
      "type": "function"
    },
    {
      "inputs": [
        {
          "internalType": "address",
          "name": "",
          "type": "address"
        }
      ],
      "name": "reputationScores",
      "outputs": [
        {
          "internalType": "uint256",
          "name": "",
          "type": "uint256"
        }
      ],
      "stateMutability": "view",
      "type": "function"
    },
    {
      "inputs": [
        {
          "internalType": "address",
          "name": "",
          "type": "address"
        }
      ],
      "name": "stakes",
      "outputs": [
        {
          "internalType": "uint256",
          "name": "amount",
          "type": "uint256"
        },
        {
          "internalType": "uint256",
          "name": "startTime",
          "type": "uint256"
        },
        {
          "internalType": "uint256",
          "name": "duration",
          "type": "uint256"
        }
      ],
      "stateMutability": "view",
      "type": "function"
    },
    {
      "inputs": [],
      "name": "symbol",
      "outputs": [
        {
          "internalType": "string",
          "name": "",
          "type": "string"
        }
      ],
      "stateMutability": "view",
      "type": "function"
    },
    {
      "inputs": [],
      "name": "totalSupply",
      "outputs": [
        {
          "internalType": "uint256",
          "name": "",
          "type": "uint256"
        }
      ],
      "stateMutability": "view",
      "type": "function"
    },
    {
      "inputs": [
        {
          "internalType": "address",
          "name": "from",
          "type": "address"
        },
        {
          "internalType": "address",
          "name": "to",
          "type": "address"
        },
        {
          "internalType": "uint256",
          "name": "amount",
          "type": "uint256"
        }
      ],
      "name": "transferFrom",
      "outputs": [
        {
          "internalType": "bool",
          "name": "",
          "type": "bool"
        }
      ],
      "stateMutability": "nonpayable",
      "type": "function"
    },
    {
      "inputs": [
        {
          "internalType": "address",
          "name": "newOwner",
          "type": "address"
        }
      ],
      "name": "transferOwnership",
      "outputs": [],
      "stateMutability": "nonpayable",
      "type": "function"
    },
    {
      "inputs": [
        {
          "internalType": "address",
          "name": "user",
          "type": "address"
        },
        {
          "internalType": "uint256",
          "name": "initialTokens",
          "type": "uint256"
        }
      ],
      "name": "initializeWallet",
      "outputs": [],
      "stateMutability": "nonpayable",
      "type": "function"
    },
    {
      "inputs": [
        {
          "internalType": "address",
          "name": "to",
          "type": "address"
        },
        {
          "internalType": "uint256",
          "name": "amount",
          "type": "uint256"
        }
      ],
      "name": "transfer",
      "outputs": [
        {
          "internalType": "bool",
          "name": "",
          "type": "bool"
        }
      ],
      "stateMutability": "nonpayable",
      "type": "function"
    },
    {
      "inputs": [
        {
          "internalType": "uint256",
          "name": "amount",
          "type": "uint256"
        },
        {
          "internalType": "uint256",
          "name": "duration",
          "type": "uint256"
        }
      ],
      "name": "stakeTokens",
      "outputs": [],
      "stateMutability": "nonpayable",
      "type": "function"
    },
    {
      "inputs": [],
      "name": "unstakeTokens",
      "outputs": [],
      "stateMutability": "nonpayable",
      "type": "function"
    },
    {
      "inputs": [
        {
          "internalType": "address",
          "name": "account",
          "type": "address"
        }
      ],
      "name": "balanceOf",
      "outputs": [
        {
          "internalType": "uint256",
          "name": "",
          "type": "uint256"
        }
      ],
      "stateMutability": "view",
      "type": "function"
    },
    {
      "inputs": [
        {
          "internalType": "address",
          "name": "recipient",
          "type": "address"
        },
        {
          "internalType": "string",
          "name": "description",
          "type": "string"
        }
      ],
      "name": "recordActOfKindness",
      "outputs": [],
      "stateMutability": "nonpayable",
      "type": "function"
    },
    {
      "inputs": [
        {
          "internalType": "uint256",
          "name": "actId",
          "type": "uint256"
        }
      ],
      "name": "verifyActOfKindness",
      "outputs": [],
      "stateMutability": "nonpayable",
      "type": "function"
    },
    {
      "inputs": [
        {
          "internalType": "address",
          "name": "user",
          "type": "address"
        }
      ],
      "name": "getReputationScore",
      "outputs": [
        {
          "internalType": "uint256",
          "name": "",
          "type": "uint256"
        }
      ],
      "stateMutability": "view",
      "type": "function"
    },
    {
      "inputs": [
        {
          "internalType": "uint256",
          "name": "actId",
          "type": "uint256"
        }
      ],
      "name": "getActDetails",
      "outputs": [
        {
          "internalType": "address",
          "name": "initiator",
          "type": "address"
        },
        {
          "internalType": "address",
          "name": "recipient",
          "type": "address"
        },
        {
          "internalType": "string",
          "name": "description",
          "type": "string"
        },
        {
          "internalType": "uint256",
          "name": "timestamp",
          "type": "uint256"
        },
        {
          "internalType": "bool",
          "name": "verified",
          "type": "bool"
        },
        {
          "internalType": "uint256",
          "name": "reward",
          "type": "uint256"
        }
      ],
      "stateMutability": "view",
      "type": "function"
    }
  ],
  "bytecode": "0x60806040523480156200001157600080fd5b50604051806040016040528060118152602001702830bca4ba2337b93bb0b9322a37b5b2b760791b8152506040518060400160405280600381526020016214119560ea1b815250816003908162000069919062000196565b50600462000078828262000196565b505050620000956200008f6200009b60201b60201c565b6200009f565b62000262565b3390565b600580546001600160a01b038381166001600160a01b0319831681179093556040519116919082907f8be0079c531659141344cd1fd0a4f28419497f9722a3daafe3b4186f6b6457e090600090a35050565b634e487b7160e01b600052604160045260246000fd5b600181811c908216806200011c57607f821691505b6020821081036200013d57634e487b7160e01b600052602260045260246000fd5b50919050565b601f8211156200019157600081815260208120601f850160051c810160208610156200016c5750805b601f850160051c820191505b818110156200018d5782815560010162000178565b5050505b505050565b81516001600160401b03811115620001b257620001b2620000f1565b620001ca81620001c3845462000107565b8462000143565b602080601f831160018114620002025760008415620001e95750858301515b600019600386901b1c1916600185901b1785556200018d565b600085815260208120601f198616915b82811015620002335788860151825594840194600190910190840162000212565b5085821015620002525787850151600019600388901b60f8161c191681555b5050505050600190811b01905550565b6118ba80620002726000396000f3fe608060405234801561001057600080fd5b50600436106101da5760003560e01c8063715018a611610104578063a9059cbb116100a2578063dc6394b711610071578063dc6394b714610424578063dd62ed3e14610437578063f2fde38b1461044a578063fe0438b21461045d57600080fd5b8063a9059cbb146103c8578063a9b79e03146103db578063c02b9fce146103fe578063d80cbf7d1461041157600080fd5b806395d89b41116100de57806395d89b41146103805780639d2bd5e314610388578063a457c2d7146103ad578063a5ce413b146103c057600080fd5b8063715018a61461033457806375a67d5c1461033c5780638da5cb5b1461036557600080fd5b8063313ce5671161017c5780633b7b61881161014b5780633b7b6188146102f15780633efd331b146103065780633f53b43f1461031957806370a082311461032157600080fd5b8063313ce567146102be57806331d0e3b4146102cd57806339509351146102d65780633acc361a146102e957600080fd5b806318160ddd116101b857806318160ddd1461026a57806322009af61461027c57806323b872dd1461028b57806327e235e31461029e57600080fd5b806306fdde03146101df578063095ea7b3146101fd57806316934fc414610220575b600080fd5b6101e761047d565b6040516101f49190611491565b60405180910390f35b61021061020b3660046114c7565b61050f565b60405190151581526020016101f4565b61024f61022e3660046114f1565b60076020526000908152604090208054600182015460029092015490919083565b604080519384526020840192909252908201526060016101f4565b6002545b6040519081526020016101f4565b61026e678ac7230489e8000081565b61021061029936600461150c565b610529565b61026e6102ac3660046114f1565b60066020526000908152604090205481565b604051601281526020016101f4565b61026e600b5481565b6102106102e43660046114c7565b61054d565b61026e600a81565b6103046102ff366004611548565b61056f565b005b61030461031436600461156a565b610648565b61026e600381565b61026e61032f3660046114f1565b6107db565b6103046107f9565b61026e61034a3660046114f1565b6001600160a01b031660009081526009602052604090205490565b6005546040516001600160a01b0390911681526020016101f4565b6101e761080d565b61039b61039636600461156a565b61081c565b6040516101f496959493929190611583565b6102106103bb3660046114c7565b610950565b6103046109cb565b6102106103d63660046114c7565b610ad5565b6102106103e93660046114f1565b60086020526000908152604090205460ff1681565b61030461040c3660046114c7565b610b7a565b61030461041f3660046115e3565b610c4a565b61039b61043236600461156a565b610e25565b61026e6104453660046116a5565b610ef5565b6103046104583660046114f1565b610f20565b61026e61046b3660046114f1565b60096020526000908152604090205481565b60606003805461048c906116d8565b80601f01602080910402602001604051908101604052809291908181526020018280546104b8906116d8565b80156105055780601f106104da57610100808354040283529160200191610505565b820191906000526020600020905b8154815290600101906020018083116104e857829003601f168201915b5050505050905090565b60003361051d818585610f99565b60019150505b92915050565b6000336105378582856110bd565b610542858585611137565b506001949350505050565b60003361051d8185856105608383610ef5565b61056a9190611728565b610f99565b81610579336107db565b10156105c35760405162461bcd60e51b8152602060048201526014602482015273496e73756666696369656e742062616c616e636560601b60448201526064015b60405180910390fd5b6105ce333084611137565b60408051606081018252838152426020808301918252828401858152336000818152600784528690209451855592516001850155516002909301929092558251858152918201849052917fdd2a19c3bdd089cbe77c04f5655f83de0504d6140d12c8667646f55d0557c4dc91015b60405180910390a25050565b3360009081526008602052604090205460ff166106a05760405162461bcd60e51b815260206004820152601660248201527515d85b1b195d081b9bdd081a5b9a5d1a585b1a5e995960521b60448201526064016105ba565b6000818152600a6020526040902080546001600160a01b03166106fa5760405162461bcd60e51b81526020600482015260126024820152711058dd08191bd95cc81b9bdd08195e1a5cdd60721b60448201526064016105ba565b600481015460ff16156107465760405162461bcd60e51b81526020600482015260146024820152731058dd08185b1c9958591e481d995c9a599a595960621b60448201526064016105ba565b80546001600160a01b0316330361079f5760405162461bcd60e51b815260206004820152601a60248201527f43616e6e6f742076657269667920796f7572206f776e2061637400000000000060448201526064016105ba565b600060405133815283907fdc9dcea716143e907c236b1b08aebe062e40b4a4c4c5d45e614720e7aa331be89060200160405180910390a2505050565b6001600160a01b038116600090815260208190526040812054610523565b61080161139a565b61080b60006113f4565b565b60606004805461048c906116d8565b6000818152600a60209081526040808320815160c08101835281546001600160a01b03908116825260018301541693810193909352600281018054859460609486948594859485949384019190610872906116d8565b80601f016020809104026020016040519081016040528092919081815260200182805461089e906116d8565b80156108eb5780601f106108c0576101008083540402835291602001916108eb565b820191906000526020600020905b8154815290600101906020018083116108ce57829003601f168201915b50505091835250506003820154602080830191909152600483015460ff1615156040808401919091526005909301546060928301528351908401519284015191840151608085015160a090950151919d939c50919a5090985091965090945092505050565b6000338161095e8286610ef5565b9050838110156109be5760405162461bcd60e51b815260206004820152602560248201527f45524332303a2064656372656173656420616c6c6f77616e63652062656c6f77604482015264207a65726f60d81b60648201526084016105ba565b6105428286868403610f99565b336000908152600760209081526040918290208251606081018452815480825260018301549382019390935260029091015492810192909252610a435760405162461bcd60e51b815260206004820152601060248201526f4e6f207374616b656420746f6b656e7360801b60448201526064016105ba565b80604001518160200151610a579190611728565b421015610aa65760405162461bcd60e51b815260206004820152601860248201527f5374616b696e6720706572696f64206e6f7420656e646564000000000000000060448201526064016105ba565b610ab530338360000151611137565b503360009081526007602052604081208181556001810182905560020155565b600081610ae1336107db565b1015610b265760405162461bcd60e51b8152602060048201526014602482015273496e73756666696369656e742062616c616e636560601b60448201526064016105ba565b610b31338484611137565b6040518281526001600160a01b0384169033907f1b89874203ff7f0bba87c969ada3f32fda22ed38a6706d35199d21280c7811b19060200160405180910390a350600192915050565b610b8261139a565b6001600160a01b03821660009081526008602052604090205460ff1615610beb5760405162461bcd60e51b815260206004820152601a60248201527f57616c6c657420616c726561647920696e697469616c697a656400000000000060448201526064016105ba565b610bf582826112db565b6001600160a01b03821660008181526008602052604090819020805460ff19166001179055517f3f669bad8f962150ec44776b24d84ea7746740070e5b124889da3a3dc42135b99061063c9084815260200190565b3360009081526008602052604090205460ff16610ca25760405162461bcd60e51b815260206004820152601660248201527515d85b1b195d081b9bdd081a5b9a5d1a585b1a5e995960521b60448201526064016105ba565b6001600160a01b03821660009081526008602052604090205460ff16610d0a5760405162461bcd60e51b815260206004820181905260248201527f526563697069656e742077616c6c6574206e6f7420696e697469616c697a656460448201526064016105ba565b600b8054906000610d1a8361173b565b90915550506040805160c0810182523381526001600160a01b03848116602080840191825283850186815242606086015260006080860181905260a08601819052600b548152600a909252949020835181549084166001600160a01b031991821617825591516001820180549190941692169190911790915591519091906002820190610da790826117a2565b5060608201516003820155608082015160048201805460ff191691151591909117905560a090910151600590910155600b546040516001600160a01b0384169133917ff60c15579af0bb5079516be6dc1e34bafd93a7c07a289ac0c4dced5aaa30f4f590610e19908690600090611862565b60405180910390a45050565b600a602052600090815260409020805460018201546002830180546001600160a01b03938416949290931692610e5a906116d8565b80601f0160208091040260200160405190810160405280929190818152602001828054610e86906116d8565b8015610ed35780601f10610ea857610100808354040283529160200191610ed3565b820191906000526020600020905b815481529060010190602001808311610eb657829003601f168201915b50505050600383015460048401546005909401549293909260ff909116915086565b6001600160a01b03918216600090815260016020908152604080832093909416825291909152205490565b610f2861139a565b6001600160a01b038116610f8d5760405162461bcd60e51b815260206004820152602660248201527f4f776e61626c653a206e6577206f776e657220697320746865207a65726f206160448201526564647265737360d01b60648201526084016105ba565b610f96816113f4565b50565b6001600160a01b038316610ffb5760405162461bcd60e51b8152602060048201526024808201527f45524332303a20617070726f76652066726f6d20746865207a65726f206164646044820152637265737360e01b60648201526084016105ba565b6001600160a01b03821661105c5760405162461bcd60e51b815260206004820152602260248201527f45524332303a20617070726f766520746f20746865207a65726f206164647265604482015261737360f01b60648201526084016105ba565b6001600160a01b0383811660008181526001602090815260408083209487168084529482529182902085905590518481527f8c5be1e5ebec7d5bd14f71427d1e84f3dd0314c0f7b2291e5b200ac8c7c3b925910160405180910390a3505050565b60006110c98484610ef5565b9050600019811461113157818110156111245760405162461bcd60e51b815260206004820152601d60248201527f45524332303a20696e73756666696369656e7420616c6c6f77616e636500000060448201526064016105ba565b6111318484848403610f99565b50505050565b6001600160a01b03831661119b5760405162461bcd60e51b815260206004820152602560248201527f45524332303a207472616e736665722066726f6d20746865207a65726f206164604482015264647265737360d81b60648201526084016105ba565b6001600160a01b0382166111fd5760405162461bcd60e51b815260206004820152602360248201527f45524332303a207472616e7366657220746f20746865207a65726f206164647260448201526265737360e81b60648201526084016105ba565b6001600160a01b038316600090815260208190526040902054818110156112755760405162461bcd60e51b815260206004820152602660248201527f45524332303a207472616e7366657220616d6f756e7420657863656564732062604482015265616c616e636560d01b60648201526084016105ba565b6001600160a01b03848116600081815260208181526040808320878703905593871680835291849020805487019055925185815290927fddf252ad1be2c89b69c2b068fc378daa952ba7f163c4a11628f55a4df523b3ef910160405180910390a3611131565b6001600160a01b0382166113315760405162461bcd60e51b815260206004820152601f60248201527f45524332303a206d696e7420746f20746865207a65726f20616464726573730060448201526064016105ba565b80600260008282546113439190611728565b90915550506001600160a01b038216600081815260208181526040808320805486019055518481527fddf252ad1be2c89b69c2b068fc378daa952ba7f163c4a11628f55a4df523b3ef910160405180910390a35050565b6005546001600160a01b0316331461080b5760405162461bcd60e51b815260206004820181905260248201527f4f776e61626c653a2063616c6c6572206973206e6f7420746865206f776e657260448201526064016105ba565b600580546001600160a01b038381166001600160a01b0319831681179093556040519116919082907f8be0079c531659141344cd1fd0a4f28419497f9722a3daafe3b4186f6b6457e090600090a35050565b505050565b6000815180845260005b8181101561147157602081850181015186830182015201611455565b506000602082860101526020601f19601f83011685010191505092915050565b6020815260006114a4602083018461144b565b9392505050565b80356001600160a01b03811681146114c257600080fd5b919050565b600080604083850312156114da57600080fd5b6114e3836114ab565b946020939093013593505050565b60006020828403121561150357600080fd5b6114a4826114ab565b60008060006060848603121561152157600080fd5b61152a846114ab565b9250611538602085016114ab565b9150604084013590509250925092565b6000806040838503121561155b57600080fd5b50508035926020909101359150565b60006020828403121561157c57600080fd5b5035919050565b6001600160a01b0387811682528616602082015260c0604082018190526000906115af9083018761144b565b606083019590955250911515608083015260a0909101529392505050565b634e487b7160e01b600052604160045260246000fd5b600080604083850312156115f657600080fd5b6115ff836114ab565b9150602083013567ffffffffffffffff8082111561161c57600080fd5b818501915085601f83011261163057600080fd5b813581811115611642576116426115cd565b604051601f8201601f19908116603f0116810190838211818310171561166a5761166a6115cd565b8160405282815288602084870101111561168357600080fd5b8260208601602083013760006020848301015280955050505050509250929050565b600080604083850312156116b857600080fd5b6116c1836114ab565b91506116cf602084016114ab565b90509250929050565b600181811c908216806116ec57607f821691505b60208210810361170c57634e487b7160e01b600052602260045260246000fd5b50919050565b634e487b7160e01b600052601160045260246000fd5b8082018082111561052357610523611712565b60006001820161174d5761174d611712565b5060010190565b601f82111561144657600081815260208120601f850160051c8101602086101561177b5750805b601f850160051c820191505b8181101561179a57828155600101611787565b505050505050565b815167ffffffffffffffff8111156117bc576117bc6115cd565b6117d0816117ca84546116d8565b84611754565b602080601f83116001811461180557600084156117ed5750858301515b600019600386901b1c1916600185901b17855561179a565b600085815260208120601f198616915b8281101561183457888601518255948401946001909101908401611815565b50858210156118525787850151600019600388901b60f8161c191681555b5050505050600190811b01905550565b604081526000611875604083018561144b565b9050826020830152939250505056fea26469706673582212201198601770fe879c74e6e31eb5dcacf10238330750de95c913d2f8be282cba6264736f6c63430008130033",
  "immutableReferences": {},
  "source": "// SPDX-License-Identifier: MIT\npragma solidity ^0.8.0;\n\nimport \"@openzeppelin/contracts/token/ERC20/ERC20.sol\";\nimport \"@openzeppelin/contracts/access/Ownable.sol\";\n\ncontract PayItForwardToken is ERC20, Ownable {\n    constructor() ERC20(\"PayItForwardToken\", \"PFT\") Ownable() {}\n    \n    struct Stake {\n        uint256 amount;\n        uint256 startTime;\n        uint256 duration;\n    }\n\n    struct ActOfKindness {\n        address initiator;\n        address recipient;\n        string description;\n        uint256 timestamp;\n        bool verified;\n        uint256 reward;\n    }\n\n    mapping(address => uint256) public balances;\n    mapping(address => Stake) public stakes;\n    mapping(address => bool) public initializedWallets;\n    mapping(address => uint256) public reputationScores;\n    mapping(uint256 => ActOfKindness) public actsOfKindness;\n    uint256 public actCounter;\n\n    uint256 public constant BASE_REWARD = 10 ether;\n    uint256 public constant VERIFICATION_THRESHOLD = 3;\n    uint256 public constant REPUTATION_INCREMENT = 10;\n\n    event WalletInitialized(address indexed user, uint256 amount);\n    event TokensTransferred(address indexed from, address indexed to, uint256 amount);\n    event TokensStaked(address indexed user, uint256 amount, uint256 duration);\n    event ActOfKindnessRecorded(\n        uint256 indexed actId,\n        address indexed initiator,\n        address indexed recipient,\n        string description,\n        uint256 reward\n    );\n    event ActVerified(uint256 indexed actId, address verifier);\n    event ReputationUpdated(address indexed user, uint256 newScore);\n\n\n    function initializeWallet(address user, uint256 initialTokens) external onlyOwner {\n        require(!initializedWallets[user], \"Wallet already initialized\");\n        _mint(user, initialTokens);\n        initializedWallets[user] = true;\n        emit WalletInitialized(user, initialTokens);\n    }\n\n    function transfer(address to, uint256 amount) public override returns (bool) {\n        require(balanceOf(msg.sender) >= amount, \"Insufficient balance\");\n        _transfer(msg.sender, to, amount);\n        emit TokensTransferred(msg.sender, to, amount);\n        return true;\n    }\n\n    function stakeTokens(uint256 amount, uint256 duration) external {\n        require(balanceOf(msg.sender) >= amount, \"Insufficient balance\");\n        \n        _transfer(msg.sender, address(this), amount);\n        stakes[msg.sender] = Stake({\n            amount: amount,\n            startTime: block.timestamp,\n            duration: duration\n        });\n\n        emit TokensStaked(msg.sender, amount, duration);\n    }\n\n    function unstakeTokens() external {\n        Stake memory stake = stakes[msg.sender];\n        require(stake.amount > 0, \"No staked tokens\");\n        require(block.timestamp >= stake.startTime + stake.duration, \"Staking period not ended\");\n\n        _transfer(address(this), msg.sender, stake.amount);\n        delete stakes[msg.sender];\n    }\n\n    function balanceOf(address account) public view override returns (uint256) {\n        return super.balanceOf(account);\n    }\n\n    function recordActOfKindness(\n        address recipient,\n        string memory description\n    ) external {\n        require(initializedWallets[msg.sender], \"Wallet not initialized\");\n        require(initializedWallets[recipient], \"Recipient wallet not initialized\");\n        \n        actCounter++;\n        actsOfKindness[actCounter] = ActOfKindness({\n            initiator: msg.sender,\n            recipient: recipient,\n            description: description,\n            timestamp: block.timestamp,\n            verified: false,\n            reward: 0\n        });\n\n        emit ActOfKindnessRecorded(actCounter, msg.sender, recipient, description, 0);\n    }\n\n    function verifyActOfKindness(uint256 actId) external {\n        require(initializedWallets[msg.sender], \"Wallet not initialized\");\n        ActOfKindness storage act = actsOfKindness[actId];\n        require(act.initiator != address(0), \"Act does not exist\");\n        require(!act.verified, \"Act already verified\");\n        require(msg.sender != act.initiator, \"Cannot verify your own act\");\n\n        // Temporary storage for verification count\n        uint256 verificationCount = 0;\n        \n        // Check if act should be verified (simplified for now)\n        if (verificationCount >= VERIFICATION_THRESHOLD) {\n            act.verified = true;\n            act.reward = BASE_REWARD;\n            \n            // Distribute rewards\n            _mint(act.initiator, act.reward);\n            _mint(act.recipient, act.reward / 2);\n            \n            // Update reputation\n            reputationScores[act.initiator] += REPUTATION_INCREMENT;\n            reputationScores[act.recipient] += REPUTATION_INCREMENT / 2;\n            \n            emit ReputationUpdated(act.initiator, reputationScores[act.initiator]);\n            emit ReputationUpdated(act.recipient, reputationScores[act.recipient]);\n        }\n\n        emit ActVerified(actId, msg.sender);\n    }\n\n    function getReputationScore(address user) external view returns (uint256) {\n        return reputationScores[user];\n    }\n\n    function getActDetails(uint256 actId) external view returns (\n        address initiator,\n        address recipient,\n        string memory description,\n        uint256 timestamp,\n        bool verified,\n        uint256 reward\n    ) {\n        ActOfKindness memory act = actsOfKindness[actId];\n        return (\n            act.initiator,\n            act.recipient,\n            act.description,\n            act.timestamp,\n            act.verified,\n            act.reward\n        );\n    }\n}\n",
  "sourcePath": "/Users/appjobs/Desktop/PayItForwardPlatform/backend/contracts/PayItForwardToken.sol",
  "compiler": {
    "name": "solc",
    "version": "0.8.19+commit.7dd6d404.Emscripten.clang"
  },
  "schemaVersion": "3.4.16",
  "updatedAt": "2025-01-18T11:28:35.945Z",
  "devdoc": {
    "events": {
      "Approval(address,address,uint256)": {
        "details": "Emitted when the allowance of a `spender` for an `owner` is set by a call to {approve}. `value` is the new allowance."
      },
      "Transfer(address,address,uint256)": {
        "details": "Emitted when `value` tokens are moved from one account (`from`) to another (`to`). Note that `value` may be zero."
      }
    },
    "kind": "dev",
    "methods": {
      "allowance(address,address)": {
        "details": "See {IERC20-allowance}."
      },
      "approve(address,uint256)": {
        "details": "See {IERC20-approve}. NOTE: If `amount` is the maximum `uint256`, the allowance is not updated on `transferFrom`. This is semantically equivalent to an infinite approval. Requirements: - `spender` cannot be the zero address."
      },
      "balanceOf(address)": {
        "details": "See {IERC20-balanceOf}."
      },
      "decimals()": {
        "details": "Returns the number of decimals used to get its user representation. For example, if `decimals` equals `2`, a balance of `505` tokens should be displayed to a user as `5.05` (`505 / 10 ** 2`). Tokens usually opt for a value of 18, imitating the relationship between Ether and Wei. This is the default value returned by this function, unless it's overridden. NOTE: This information is only used for _display_ purposes: it in no way affects any of the arithmetic of the contract, including {IERC20-balanceOf} and {IERC20-transfer}."
      },
      "decreaseAllowance(address,uint256)": {
        "details": "Atomically decreases the allowance granted to `spender` by the caller. This is an alternative to {approve} that can be used as a mitigation for problems described in {IERC20-approve}. Emits an {Approval} event indicating the updated allowance. Requirements: - `spender` cannot be the zero address. - `spender` must have allowance for the caller of at least `subtractedValue`."
      },
      "increaseAllowance(address,uint256)": {
        "details": "Atomically increases the allowance granted to `spender` by the caller. This is an alternative to {approve} that can be used as a mitigation for problems described in {IERC20-approve}. Emits an {Approval} event indicating the updated allowance. Requirements: - `spender` cannot be the zero address."
      },
      "name()": {
        "details": "Returns the name of the token."
      },
      "owner()": {
        "details": "Returns the address of the current owner."
      },
      "renounceOwnership()": {
        "details": "Leaves the contract without owner. It will not be possible to call `onlyOwner` functions. Can only be called by the current owner. NOTE: Renouncing ownership will leave the contract without an owner, thereby disabling any functionality that is only available to the owner."
      },
      "symbol()": {
        "details": "Returns the symbol of the token, usually a shorter version of the name."
      },
      "totalSupply()": {
        "details": "See {IERC20-totalSupply}."
      },
      "transfer(address,uint256)": {
        "details": "See {IERC20-transfer}. Requirements: - `to` cannot be the zero address. - the caller must have a balance of at least `amount`."
      },
      "transferFrom(address,address,uint256)": {
        "details": "See {IERC20-transferFrom}. Emits an {Approval} event indicating the updated allowance. This is not required by the EIP. See the note at the beginning of {ERC20}. NOTE: Does not update the allowance if the current allowance is the maximum `uint256`. Requirements: - `from` and `to` cannot be the zero address. - `from` must have a balance of at least `amount`. - the caller must have allowance for ``from``'s tokens of at least `amount`."
      },
      "transferOwnership(address)": {
        "details": "Transfers ownership of the contract to a new account (`newOwner`). Can only be called by the current owner."
      }
    },
    "version": 1
  },
  "userdoc": {
    "kind": "user",
    "methods": {},
    "version": 1
  }
}